:100000000C9462000C948A000C948A000C948A0070
:100010000C948A000C948A000C948A000C948A0038
:100020000C948A000C948A000C948A000C948A0028
:100030000C948A000C948A000C948A000C948A0018
:100040000C94AE020C948A000C941E030C94F802DB
:100050000C948A000C948A000C948A000C948A00F8
:100060000C948A000C948A000000000023002600F3
:10007000290000000000240027002A0000000000E2
:10008000250028002B0004040404040404040202D4
:100090000202020203030303030301020408102007
:1000A0004080010204081020010204081020000012
:1000B0000008000201000003040700000000000027
:1000C0000000A90411241FBECFEFD8E0DEBFCDBFD2
:1000D00011E0A0E0B1E0E2E6FCE002C005900D9284
:1000E000A631B107D9F721E0A6E1B1E001C01D9228
:1000F000AC3BB207E1F710E0C2E6D0E004C02197C4
:10010000FE010E94F804C136D107C9F70E94950389
:100110000C942F060C940000E7EBF0E02491E3EA46
:10012000F0E09491EFE8F0E0E491EE23C9F02223AF
:1001300039F0233001F1A8F4213019F1223029F1EE
:10014000F0E0EE0FFF1FE458FF4FA591B4912FB7D9
:10015000F894EC91811126C090959E239C932FBF1B
:1001600008952730A9F02830C9F0243049F72091AC
:1001700080002F7D03C0209180002F772093800086
:10018000DFCF24B52F7724BDDBCF24B52F7DFBCF68
:100190002091B0002F772093B000D2CF2091B000F3
:1001A0002F7DF9CF9E2BDACFCF93DF9390E0FC0128
:1001B000E656FF4F24918A579F4FFC018491882374
:1001C000D1F090E0880F991FFC01EE58FF4FA591E8
:1001D000B491FC01E458FF4FC591D49161110EC058
:1001E0009FB7F8948C91E22FE0958E238C93288111
:1001F000E223E8839FBFDF91CF9108958FB7F894F2
:10020000EC91E22BEC938FBFF6CF3FB7F89480913F
:100210001B0190911C01A0911D01B0911E0126B5FA
:10022000A89B05C02F3F19F00196A11DB11D3FBF2E
:10023000BA2FA92F982F8827BC01CD01620F711DFD
:10024000811D911D42E0660F771F881F991F4A95F7
:10025000D1F70895AF92BF92CF92DF92EF92FF92C3
:100260000F931F93CF93DF936C017B018B01040FDE
:10027000151FEB015E01AE18BF08C017D10759F07A
:100280006991D601ED91FC910190F081E02DC601BC
:100290000995892B79F7C501DF91CF911F910F91B6
:1002A000FF90EF90DF90CF90BF90AF900895FC014A
:1002B000538D448D252F30E0842F90E0821B930BCB
:1002C000541710F0CF96089501970895FC01918D71
:1002D000828D981761F0A28DAE0FBF2FB11D5D9674
:1002E0008C91928D9F5F9F73928F90E008958FEF16
:1002F0009FEF0895FC01918D828D981731F0828DCA
:10030000E80FF11D858D90E008958FEF9FEF089520
:10031000FC01918D228D892F90E0805C9F4F821B84
:1003200091098F73992708958FE191E00E948801C8
:1003300021E0892B09F420E0822F089580E090E0ED
:10034000892B29F00E94940181110C9400000895DA
:10035000FC01A48DA80FB92FB11DA35ABF4F2C913A
:10036000848D90E001968F739927848FA689B78931
:100370002C93A089B1898C91837080648C93938D28
:10038000848D981306C00288F389E02D80818F7DCB
:1003900080830895EF92FF920F931F93CF93DF9383
:1003A000EC0181E0888F9B8D8C8D98131AC0E889B1
:1003B000F989808185FF15C09FB7F894EE89FF8980
:1003C0006083E889F98980818370806480839FBF1E
:1003D00081E090E0DF91CF911F910F91FF90EF901E
:1003E0000895F62E0B8D10E00F5F1F4F0F7311272E
:1003F000E02E8C8D8E110CC00FB607FCFACFE88969
:10040000F989808185FFF5CFCE010E94A801F1CF47
:10041000EB8DEC0FFD2FF11DE35AFF4FF0829FB7DC
:10042000F8940B8FEA89FB8980818062CFCFCF93CC
:10043000DF93EC01888D8823B9F0AA89BB89E8890C
:10044000F9898C9185FD03C0808186FD0DC00FB6B2
:1004500007FCF7CF8C9185FFF2CF808185FFEDCF30
:10046000CE010E94A801E9CFDF91CF9108958F922C
:100470009F92AF92BF920F931F93CF93DF93CDB70D
:10048000DEB7A1970FB6F894DEBF0FBECDBF19A29D
:10049000423008F44AE08E010F5D1F4F842E912CEC
:1004A000B12CA12CA50194010E94D604E62FB9011C
:1004B000CA01EA3044F5E05DD801EE938D01232BAB
:1004C000242B252B79F790E080E0109769F0FD014F
:1004D00001900020E9F73197AF014A1B5B0BBD018A
:1004E0008FE191E00E942A01A1960FB6F894DEBF39
:1004F0000FBECDBFDF91CF911F910F91BF90AF90F5
:100500009F908F900895E95CD7CFCF92DF92EF92C2
:10051000FF92CF93DF936B017C016DE28FE191E05D
:100520000E94CA01EC0166277727CB016C197D096F
:100530008E099F094AE00E9437028C0F9D1FDF91B0
:10054000CF91FF90EF90DF90CF90089542E050E080
:1005500062E171E08FE191E00C942A011F920F9209
:100560000FB60F9211242F933F938F939F93AF93C6
:10057000BF938091170190911801A0911901B0913A
:100580001A013091160123E0230F2D3758F50196FB
:10059000A11DB11D2093160180931701909318019E
:1005A000A0931901B0931A0180911B0190911C0135
:1005B000A0911D01B0911E010196A11DB11D809356
:1005C0001B0190931C01A0931D01B0931E01BF91CC
:1005D000AF919F918F913F912F910F900FBE0F90F0
:1005E0001F90189526E8230F0296A11DB11DD2CFAA
:1005F0001F920F920FB60F9211242F933F934F9398
:100600005F936F937F938F939F93AF93BF93EF937A
:10061000FF938FE191E00E94A801FF91EF91BF91BC
:10062000AF919F918F917F916F915F914F913F918A
:100630002F910F900FBE0F901F9018951F920F9241
:100640000FB60F9211242F938F939F93EF93FF93E5
:10065000E0912F01F09130018081E0913501F0911E
:10066000360182FD1BC09081809138018F5F8F73AE
:1006700020913901821741F0E0913801F0E0E15E0C
:10068000FE4F958F80933801FF91EF919F918F914D
:100690002F910F900FBE0F901F9018958081F4CF6F
:1006A000CF92DF92EF92FF920F931F93E82FF92FD3
:1006B00005C0015011092109310961F1908196238A
:1006C0009417B9F305C0015011092109310911F13D
:1006D000908196239413F7CFC12CD12CE12CF12CCF
:1006E0000AC08FEFC81AD80AE80AF80A0C151D05C7
:1006F0002E053F0579F080818623841791F36C2DB8
:100700007D2D8E2D9F2D1F910F91FF90EF90DF90EB
:10071000CF90089560E070E080E090E01F910F912D
:10072000FF90EF90DF90CF900895789484B5826029
:1007300084BD84B5816084BD85B5826085BD85B585
:10074000816085BD80916E00816080936E00109203
:10075000810080918100826080938100809181007E
:10076000816080938100809180008160809380000F
:100770008091B10084608093B1008091B00081606D
:100780008093B00080917A00846080937A00809199
:100790007A00826080937A0080917A0081608093F1
:1007A0007A0080917A00806880937A001092C1006C
:1007B00061E08DE00E94D400E0912F01F0913001C2
:1007C00082E08083E0912B01F0912C011082E09176
:1007D0002D01F0912E0180E1808310923701E0918C
:1007E0003301F091340186E08083E0913101F09192
:1007F0003201808180618083E0913101F09132018A
:10080000808188608083E0913101F09132018081A4
:1008100080688083E0913101F091320180818F7D89
:10082000808361E089E00E94D40060E08AE00E9459
:10083000D400C3E0D0E023E2A22EB12C30E9232E75
:1008400030E0332E40E0842E40E0942E80E00E9481
:100850008C00CE010197F1F781E00E948C00C50168
:100860000197F1F780E00E948C00E4EAF0E06491E7
:10087000F1018491E82FF0E0EE0FFF1FE859FF4FE0
:100880008591949100E21EE420E030E0462F0E9422
:100890005003611571058105910551F06F5F7F4F20
:1008A0008F4F9F4F9F706115710581059105B9F5B7
:1008B0006FEF7FEFCB010E9485020E94A6020E948B
:1008C00005012B013C0184E6C82ED12CE12CF12C32
:1008D0000E9405016419750986099709683E7340ED
:1008E00081059105A8F3F1E0CF1AD108E108F108DC
:1008F00028EE420E23E0521E611C711CC114D1046B
:10090000E104F10429F78114910409F49FCF0E94B6
:100910009401882309F49ACF0E94000097CF0E9487
:10092000360528E23EE74CE05DE30E949A0520E0B0
:1009300030E040E05FE30E949A050E94FE04072E2B
:10094000000C880B990B97FDB6CF4AE00E94370246
:10095000B4CFEFE1F1E01382128288EE93E0A0E0E1
:10096000B0E084839583A683B78384E091E091838C
:10097000808385EC90E09587848784EC90E097876E
:10098000868780EC90E0918B808B81EC90E0938B5C
:10099000828B82EC90E0958B848B86EC90E0978B39
:1009A000868B118E128E138E148E0895A1E21A2E4C
:1009B000AA1BBB1BFD010DC0AA1FBB1FEE1FFF1F03
:1009C000A217B307E407F50720F0A21BB30BE40B53
:1009D000F50B661F771F881F991F1A9469F760959A
:1009E0007095809590959B01AC01BD01CF01089554
:1009F000EE0FFF1F0590F491E02D09940E9405056C
:100A00006894B1110C94940508950E94790588F0BA
:100A10009F5798F0B92F9927B751B0F0E1F0660FC2
:100A2000771F881F991F1AF0BA95C9F714C0B13003
:100A300091F00E949305B1E008950C949305672FFF
:100A4000782F8827B85F39F0B93FCCF38695779532
:100A50006795B395D9F73EF490958095709561951B
:100A60007F4F8F4F9F4F0895E89409C097FB3EF446
:100A700090958095709561957F4F8F4F9F4F9923EB
:100A8000A9F0F92F96E9BB279395F6958795779569
:100A90006795B795F111F8CFFAF4BB0F11F460FF29
:100AA0001BC06F5F7F4F8F4F9F4F16C0882311F081
:100AB00096E911C0772321F09EE8872F762F05C095
:100AC000662371F096E8862F70E060E02AF09A9530
:100AD000660F771F881FDAF7880F9695879597F925
:100AE000089557FD9058440F551F59F05F3F71F01E
:100AF0004795880F97FB991F61F09F3F79F0879585
:100B00000895121613061406551FF2CF4695F1DF0D
:100B100008C0161617061806991FF1CF869571059D
:100B2000610508940895E894BB2766277727CB01D1
:100B300097F908950E94AD050C941E060E941006B8
:100B400038F00E94170620F0952311F00C94070648
:100B50000C940D0611240C9494050E94710570F3F9
:100B6000959FC1F3950F50E0551F629FF001729F52
:100B7000BB27F00DB11D639FAA27F00DB11DAA1F61
:100B8000649F6627B00DA11D661F829F2227B00DAE
:100B9000A11D621F739FB00DA11D621F839FA00D39
:100BA000611D221F749F3327A00D611D231F849F89
:100BB000600D211D822F762F6A2F11249F575040E0
:100BC0009AF0F1F088234AF0EE0FFF1FBB1F661F5B
:100BD000771F881F91505040A9F79E3F510580F024
:100BE0000C9407060C9494055F3FE4F3983ED4F30D
:100BF000869577956795B795F795E7959F5FC1F7C8
:100C0000FE2B880F911D9695879597F9089597F972
:100C10009F6780E870E060E008959FEF80EC0895A2
:100C200000240A94161617061806090608950024CB
:100C30000A9412161306140605060895092E039445
:100C4000000C11F4882352F0BB0F40F4BF2B11F4B9
:100C500060FF04C06F5F7F4F8F4F9F4F0895F894E0
:020C6000FFCFC4
:100C620000000000CA012A0157011702880166012B
:060C72007A010D0A0000EA
:00000001FF
