:100000000C9462000C948A000C948A000C948A0070
:100010000C948A000C948A000C948A000C948A0038
:100020000C948A000C948A000C948A000C948A0028
:100030000C948A000C948A000C948A000C948A0018
:100040000C94B2020C948A000C9422030C94FC02CF
:100050000C948A000C948A000C948A000C948A00F8
:100060000C948A000C948A000000000023002600F3
:10007000290000000000240027002A0000000000E2
:10008000250028002B0004040404040404040202D4
:100090000202020203030303030301020408102007
:1000A0004080010204081020010204081020000012
:1000B0000008000201000003040700000000000027
:1000C0000000DB0411241FBECFEFD8E0DEBFCDBFA0
:1000D00011E0A0E0B1E0E8E1FDE002C005900D9282
:1000E000A631B107D9F721E0A6E1B1E001C01D9228
:1000F000A03CB207E1F710E0C2E6D0E004C02197CF
:10010000FE010E942A05C136D107C9F70E94990352
:100110000C948A060C94000090E0FC01E255FF4F1D
:100120002491FC01E656FF4F3491FC01EA57FF4F42
:10013000E491EE23C9F0222339F0233001F1A8F431
:10014000213019F1223029F1F0E0EE0FFF1FE458C1
:10015000FF4FA591B4918FB7F894EC91611126C02F
:1001600030953E233C938FBF08952730A9F0283067
:10017000C9F0243049F7809180008F7D03C08091C1
:1001800080008F7780938000DFCF84B58F7784BD28
:10019000DBCF84B58F7DFBCF8091B0008F778093CC
:1001A000B000D2CF8091B0008F7DF9CF3E2BDACF57
:1001B000CF93DF9390E0FC01E656FF4F24918A57DE
:1001C0009F4FFC0184918823D1F090E0880F991F04
:1001D000FC01EE58FF4FA591B491FC01E458FF4F8C
:1001E000C591D49161110EC09FB7F8948C91E22F04
:1001F000E0958E238C932881E223E8839FBFDF91D3
:10020000CF9108958FB7F894EC91E22BEC938FBFC8
:10021000F6CF3FB7F89480911F0190912001A091F3
:100220002101B091220126B5A89B05C02F3F19F0EE
:100230000196A11DB11D3FBFBA2FA92F982F882766
:10024000BC01CD01620F711D811D911D42E0660F41
:10025000771F881F991F4A95D1F70895AF92BF92D3
:10026000CF92DF92EF92FF920F931F93CF93DF9382
:100270006C017B018B01040F151FEB015E01AE18B1
:10028000BF08C017D10759F06991D601ED91FC91D3
:100290000190F081E02DC6010995892B79F7C50100
:1002A000DF91CF911F910F91FF90EF90DF90CF9052
:1002B000BF90AF900895FC01538D448D252F30E001
:1002C000842F90E0821B930B541710F0CF96089563
:1002D00001970895FC01918D828D981761F0A28D90
:1002E000AE0FBF2FB11D5D968C91928D9F5F9F7356
:1002F000928F90E008958FEF9FEF0895FC01918D0C
:10030000828D981731F0828DE80FF11D858D90E078
:1003100008958FEF9FEF0895FC01918D228D892F15
:1003200090E0805C9F4F821B91098F7399270895FD
:1003300083E291E00E948C0121E0892B09F420E006
:10034000822F089580E090E0892B29F00E94980187
:1003500081110C9400000895FC01A48DA80FB92F01
:10036000B11DA35ABF4F2C91848D90E001968F73DD
:100370009927848FA689B7892C93A089B1898C91FC
:10038000837080648C93938D848D981306C002884B
:10039000F389E02D80818F7D80830895EF92FF9215
:1003A0000F931F93CF93DF93EC0181E0888F9B8D98
:1003B0008C8D98131AC0E889F989808185FF15C052
:1003C0009FB7F894EE89FF896083E889F989808175
:1003D0008370806480839FBF81E090E0DF91CF9144
:1003E0001F910F91FF90EF900895F62E0B8D10E066
:1003F0000F5F1F4F0F731127E02E8C8D8E110CC0D5
:100400000FB607FCFACFE889F989808185FFF5CF1F
:10041000CE010E94AC01F1CFEB8DEC0FFD2FF11D51
:10042000E35AFF4FF0829FB7F8940B8FEA89FB895C
:1004300080818062CFCFCF93DF93EC01888D8823BA
:10044000B9F0AA89BB89E889F9898C9185FD03C037
:10045000808186FD0DC00FB607FCF7CF8C9185FF1C
:10046000F2CF808185FFEDCFCE010E94AC01E9CFB4
:10047000DF91CF9108958F929F92AF92BF920F9389
:100480001F93CF93DF93CDB7DEB7A1970FB6F89444
:10049000DEBF0FBECDBF19A2423008F44AE08E0184
:1004A0000F5D1F4F842E912CB12CA12CA50194011E
:1004B0000E940805E62FB901CA01EA3044F5E05D63
:1004C000D801EE938D01232B242B252B79F790E077
:1004D00080E0109769F0FD0101900020E9F7319765
:1004E000AF014A1B5B0BBD0183E291E00E942E012C
:1004F000A1960FB6F894DEBF0FBECDBFDF91CF91AE
:100500001F910F91BF90AF909F908F900895E95CDD
:10051000D7CFCF92DF92EF92FF92CF93DF936B0111
:100520007C016DE283E291E00E94CE01EC0166273E
:100530007727CB016C197D098E099F094AE00E943B
:100540003B028C0F9D1FDF91CF91FF90EF90DF90CA
:10055000CF90089542E050E062E171E083E291E0E3
:100560000C942E011F920F920FB60F9211242F930D
:100570003F938F939F93AF93BF9380911B01909173
:100580001C01A0911D01B0911E0130911A0123E0C0
:10059000230F2D3758F50196A11DB11D20931A0187
:1005A00080931B0190931C01A0931D01B0931E0129
:1005B00080911F0190912001A0912101B091220111
:1005C0000196A11DB11D80931F0190932001A0935E
:1005D0002101B0932201BF91AF919F918F913F91E3
:1005E0002F910F900FBE0F901F90189526E8230FA4
:1005F0000296A11DB11DD2CF1F920F920FB60F927E
:1006000011242F933F934F935F936F937F938F9317
:100610009F93AF93BF93EF93FF9383E291E00E9488
:10062000AC01FF91EF91BF91AF919F918F917F911D
:100630006F915F914F913F912F910F900FBE0F904F
:100640001F9018951F920F920FB60F9211242F939F
:100650008F939F93EF93FF93E0913301F0913401D7
:100660008081E0913901F0913A0182FD1BC09081B7
:1006700080913C018F5F8F7320913D01821741F083
:10068000E0913C01F0E0ED5DFE4F958F80933C01E1
:10069000FF91EF919F918F912F910F900FBE0F902F
:1006A0001F9018958081F4CFCF92DF92EF92FF9246
:1006B0000F931F93E82FF92F05C00150110921094D
:1006C000310961F1908196239417B9F305C0015067
:1006D00011092109310911F1908196239413F7CF63
:1006E000C12CD12CE12CF12C0AC08FEFC81AD80AEA
:1006F000E80AF80A0C151D052E053F0579F08081E2
:100700008623841791F36C2D7D2D8E2D9F2D1F91A7
:100710000F91FF90EF90DF90CF90089560E070E030
:1007200080E090E01F910F91FF90EF90DF90CF90CD
:100730000895789484B5826084BD84B5816084BD59
:1007400085B5826085BD85B5816085BD80916E006F
:10075000816080936E0010928100809181008260A0
:1007600080938100809181008160809381008091DD
:1007700080008160809380008091B10084608093CC
:10078000B1008091B00081608093B00080917A00C8
:10079000846080937A0080917A00826080937A00EE
:1007A00080917A00816080937A0080917A008068DD
:1007B00080937A001092C10061E084E00E94D8002A
:1007C00061E083E00E94D80061E089E00E94D800E7
:1007D00060E08AE00E94D800E0913301F09134019A
:1007E00082E08083E0912F01F09130011082E0914E
:1007F0003101F091320180E1808310923B01E09160
:100800003701F091380186E08083E0913501F09165
:100810003601808180618083E0913501F09136015D
:10082000808188608083E0913501F091360180817C
:1008300080688083E0913501F091360180818F7D61
:100840008083C3E0D0E023E2A22EB12C30E9232E36
:1008500030E0332E40E0842E40E0942E60E089E0CA
:100860000E948C00CE010197F1F761E089E00E94BF
:100870008C00C5010197F1F760E089E00E948C00CF
:10088000E4EAF0E06491F1018491E82FF0E0EE0FEA
:10089000FF1FE859FF4F8591949100E21EE420E08C
:1008A00030E0462F0E9454036115710581059105C2
:1008B00059F06F5F7F4F8F4F9F4F9F70611571058C
:1008C0008105910509F03FC060E084E00E948C0042
:1008D00060E083E00E948C006FEF7FEFCB010E940D
:1008E00089020E94AA020E9409012B013C0184E6B0
:1008F000C82ED12CE12CF12C0E9409016419750934
:1009000086099709683E734081059105A8F3F1E0D7
:10091000CF1AD108E108F10828EE420E23E0521E5A
:10092000611C711CC114D104E104F10429F7811484
:10093000910409F493CF0E949801882309F48ECF83
:100940000E9400008BCF0E946D0528E23EE74CE03C
:100950005DE30E94F50520E030E040E05FE30E94A7
:10096000F5056B017C01C0921601D0921701E0924F
:100970001801F092190120E030E040E751E40E94B4
:100980003005782E771C7724771C672D84E00E9431
:100990008C00672D83E00E948C00C701B6010E9485
:1009A0003505072E000C880B990B97FD98CF4AE070
:1009B0000E943B0296CFE3E2F1E01382128288EEBE
:1009C00093E0A0E0B0E084839583A683B78384E0BE
:1009D00091E09183808385EC90E09587848784EC17
:1009E00090E09787868780EC90E0918B808B81ECFC
:1009F00090E0938B828B82EC90E0958B848B86ECDD
:100A000090E0978B868B118E128E138E148E089524
:100A1000A1E21A2EAA1BBB1BFD010DC0AA1FBB1F02
:100A2000EE1FFF1FA217B307E407F50720F0A21B74
:100A3000B30BE40BF50B661F771F881F991F1A94E1
:100A400069F760957095809590959B01AC01BD010B
:100A5000CF010895EE0FFF1F0590F491E02D09944A
:100A60000E94A80508F481E008950E943C0568945E
:100A7000B1110C94EF0508950E94D40588F09F579A
:100A800098F0B92F9927B751B0F0E1F0660F771FB2
:100A9000881F991F1AF0BA95C9F714C0B13091F0A8
:100AA0000E94EE05B1E008950C94EE05672F782FB3
:100AB0008827B85F39F0B93FCCF38695779567956D
:100AC000B395D9F73EF490958095709561957F4FD9
:100AD0008F4F9F4F0895E89409C097FB3EF490957F
:100AE0008095709561957F4F8F4F9F4F9923A9F007
:100AF000F92F96E9BB279395F69587957795679596
:100B0000B795F111F8CFFAF4BB0F11F460FF1BC0D9
:100B10006F5F7F4F8F4F9F4F16C0882311F096E96C
:100B200011C0772321F09EE8872F762F05C066231A
:100B300071F096E8862F70E060E02AF09A95660FD3
:100B4000771F881FDAF7880F9695879597F908958C
:100B5000990F0008550FAA0BE0E8FEEF16161706CE
:100B6000E807F907C0F012161306E407F50798F036
:100B7000621B730B840B950B39F40A2661F0232B4F
:100B8000242B252B21F408950A2609F4A140A695CB
:100B90008FEF811D811D089557FD9058440F551FFB
:100BA00059F05F3F71F04795880F97FB991F61F0EF
:100BB0009F3F79F087950895121613061406551F66
:100BC000F2CF4695F1DF08C0161617061806991FD2
:100BD000F1CF86957105610508940895E894BB27C7
:100BE00066277727CB0197F908950E9408060C9491
:100BF00079060E946B0638F00E94720620F0952359
:100C000011F00C9462060C94680611240C94EF0504
:100C10000E94CC0570F3959FC1F3950F50E0551FCE
:100C2000629FF001729FBB27F00DB11D639FAA2741
:100C3000F00DB11DAA1F649F6627B00DA11D661F90
:100C4000829F2227B00DA11D621F739FB00DA11DB1
:100C5000621F839FA00D611D221F749F3327A00D6B
:100C6000611D231F849F600D211D822F762F6A2F07
:100C700011249F5750409AF0F1F088234AF0EE0F6C
:100C8000FF1FBB1F661F771F881F91505040A9F799
:100C90009E3F510580F00C9462060C94EF055F3F77
:100CA000E4F3983ED4F3869577956795B795F795D5
:100CB000E7959F5FC1F7FE2B880F911D969587954D
:100CC00097F9089597F99F6780E870E060E00895CC
:100CD0009FEF80EC089500240A9416161706180654
:100CE0000906089500240A94121613061406050630
:100CF0000895092E0394000C11F4882352F0BB0FC1
:100D000040F4BF2B11F460FF04C06F5F7F4F8F4F23
:080D10009F4F0895F894FFCFF6
:100D180000000000CE012E015B011B028C016A015C
:060D28007E010D0A00002F
:00000001FF
